{
  "contractName": "Adoption",
  "abi": [
    {
      "inputs": [
        {
          "internalType": "uint256",
          "name": "",
          "type": "uint256"
        }
      ],
      "name": "adopters",
      "outputs": [
        {
          "internalType": "address",
          "name": "",
          "type": "address"
        }
      ],
      "stateMutability": "view",
      "type": "function"
    },
    {
      "inputs": [
        {
          "internalType": "uint256",
          "name": "petId",
          "type": "uint256"
        }
      ],
      "name": "adopt",
      "outputs": [
        {
          "internalType": "uint256",
          "name": "",
          "type": "uint256"
        }
      ],
      "stateMutability": "nonpayable",
      "type": "function"
    },
    {
      "inputs": [],
      "name": "getAdopters",
      "outputs": [
        {
          "internalType": "address[32]",
          "name": "",
          "type": "address[32]"
        }
      ],
      "stateMutability": "view",
      "type": "function"
    }
  ],
  "bytecode": "0x608060405234801561001057600080fd5b50610228806100206000396000f3fe608060405234801561001057600080fd5b50600436106100415760003560e01c80633de4eb171461004657806343ae80d3146100645780638588b2c514610084575b600080fd5b61004e6100a4565b60405161005b91906101aa565b60405180910390f35b61007761007236600461017e565b6100ea565b60405161005b9190610196565b61009761009236600461017e565b61010a565b60405161005b91906101e9565b6100ac61015f565b604080516104008101918290529060009060209082845b81546001600160a01b031681526001909101906020018083116100c3575050505050905090565b600081602081106100fa57600080fd5b01546001600160a01b0316905081565b6000600f82111561011a57600080fd5b336000836020811061013c57634e487b7160e01b600052603260045260246000fd5b0180546001600160a01b0319166001600160a01b03929092169190911790555090565b6040518061040001604052806020906020820280368337509192915050565b60006020828403121561018f578081fd5b5035919050565b6001600160a01b0391909116815260200190565b6104008101818360005b60208082106101c357506101e0565b82516001600160a01b0316845292830192909101906001016101b4565b50505092915050565b9081526020019056fea2646970667358221220b3b0401159c72f5cd431b686e150d1b34162c87ac859b282ab30fdbcf34c68ae64736f6c63430008000033",
  "immutableReferences": {},
  "source": "// SPDX-License-Identifier: MIT\r\npragma solidity ^0.8.0;\r\n\r\ncontract Adoption {\r\n    //This is an array of Ethereum addresses\r\n\r\n    address[32] public adopters;\r\n\r\n    //1. Adopting a pet\r\n    function adopt(uint256 petId) public returns (uint256) {\r\n        require(petId >= 0 && petId <= 15);\r\n\r\n        adopters[petId] = msg.sender;\r\n        return petId;\r\n    }\r\n\r\n    //2. Retrieving the adopters\r\n    //   memory gives the data location for the variable.\r\n    function getAdopters() public view returns (address[32] memory) {\r\n        return adopters;\r\n    }\r\n}",
  "sourcePath": "C:\\Users\\aya\\Desktop\\blockchain\\contracts\\Adoptation.sol",
  "compiler": {
    "name": "solc",
    "version": "0.8.0+commit.c7dfd78e.Emscripten.clang"
  },
  "schemaVersion": "3.4.16",
  "updatedAt": "2023-12-11T08:53:23.035Z",
  "devdoc": {
    "kind": "dev",
    "methods": {},
    "version": 1
  },
  "userdoc": {
    "kind": "user",
    "methods": {},
    "version": 1
  }
}